{
  "contractName": "SolnSquareVerifier",
  "abi": [
    {
      "inputs": [
        {
          "internalType": "address",
          "name": "_contractVerifier",
          "type": "address"
        }
      ],
      "payable": false,
      "stateMutability": "nonpayable",
      "type": "constructor"
    },
    {
      "anonymous": false,
      "inputs": [
        {
          "indexed": true,
          "internalType": "address",
          "name": "owner",
          "type": "address"
        },
        {
          "indexed": true,
          "internalType": "address",
          "name": "approved",
          "type": "address"
        },
        {
          "indexed": true,
          "internalType": "uint256",
          "name": "tokenId",
          "type": "uint256"
        }
      ],
      "name": "Approval",
      "type": "event"
    },
    {
      "anonymous": false,
      "inputs": [
        {
          "indexed": true,
          "internalType": "address",
          "name": "owner",
          "type": "address"
        },
        {
          "indexed": true,
          "internalType": "address",
          "name": "operator",
          "type": "address"
        },
        {
          "indexed": false,
          "internalType": "bool",
          "name": "approved",
          "type": "bool"
        }
      ],
      "name": "ApprovalForAll",
      "type": "event"
    },
    {
      "anonymous": false,
      "inputs": [
        {
          "indexed": false,
          "internalType": "address",
          "name": "newOwner",
          "type": "address"
        }
      ],
      "name": "OwnershipTransfered",
      "type": "event"
    },
    {
      "anonymous": false,
      "inputs": [
        {
          "indexed": false,
          "internalType": "address",
          "name": "account",
          "type": "address"
        }
      ],
      "name": "Paused",
      "type": "event"
    },
    {
      "anonymous": false,
      "inputs": [
        {
          "indexed": true,
          "internalType": "uint256",
          "name": "solutionIndex",
          "type": "uint256"
        },
        {
          "indexed": true,
          "internalType": "address",
          "name": "solutionAddress",
          "type": "address"
        }
      ],
      "name": "SolutionAdded",
      "type": "event"
    },
    {
      "anonymous": false,
      "inputs": [
        {
          "indexed": true,
          "internalType": "address",
          "name": "from",
          "type": "address"
        },
        {
          "indexed": true,
          "internalType": "address",
          "name": "to",
          "type": "address"
        },
        {
          "indexed": true,
          "internalType": "uint256",
          "name": "tokenId",
          "type": "uint256"
        }
      ],
      "name": "Transfer",
      "type": "event"
    },
    {
      "anonymous": false,
      "inputs": [
        {
          "indexed": false,
          "internalType": "address",
          "name": "account",
          "type": "address"
        }
      ],
      "name": "Unpaused",
      "type": "event"
    },
    {
      "constant": false,
      "inputs": [
        {
          "internalType": "bytes32",
          "name": "_myid",
          "type": "bytes32"
        },
        {
          "internalType": "string",
          "name": "_result",
          "type": "string"
        }
      ],
      "name": "__callback",
      "outputs": [],
      "payable": false,
      "stateMutability": "nonpayable",
      "type": "function"
    },
    {
      "constant": false,
      "inputs": [
        {
          "internalType": "bytes32",
          "name": "_myid",
          "type": "bytes32"
        },
        {
          "internalType": "string",
          "name": "_result",
          "type": "string"
        },
        {
          "internalType": "bytes",
          "name": "_proof",
          "type": "bytes"
        }
      ],
      "name": "__callback",
      "outputs": [],
      "payable": false,
      "stateMutability": "nonpayable",
      "type": "function"
    },
    {
      "constant": false,
      "inputs": [
        {
          "internalType": "address",
          "name": "to",
          "type": "address"
        },
        {
          "internalType": "uint256",
          "name": "tokenId",
          "type": "uint256"
        }
      ],
      "name": "approve",
      "outputs": [],
      "payable": false,
      "stateMutability": "nonpayable",
      "type": "function"
    },
    {
      "constant": true,
      "inputs": [
        {
          "internalType": "address",
          "name": "owner",
          "type": "address"
        }
      ],
      "name": "balanceOf",
      "outputs": [
        {
          "internalType": "uint256",
          "name": "",
          "type": "uint256"
        }
      ],
      "payable": false,
      "stateMutability": "view",
      "type": "function"
    },
    {
      "constant": true,
      "inputs": [
        {
          "internalType": "uint256",
          "name": "tokenId",
          "type": "uint256"
        }
      ],
      "name": "getApproved",
      "outputs": [
        {
          "internalType": "address",
          "name": "",
          "type": "address"
        }
      ],
      "payable": false,
      "stateMutability": "view",
      "type": "function"
    },
    {
      "constant": true,
      "inputs": [],
      "name": "getBaseTokenURI",
      "outputs": [
        {
          "internalType": "string",
          "name": "",
          "type": "string"
        }
      ],
      "payable": false,
      "stateMutability": "view",
      "type": "function"
    },
    {
      "constant": true,
      "inputs": [],
      "name": "getName",
      "outputs": [
        {
          "internalType": "string",
          "name": "",
          "type": "string"
        }
      ],
      "payable": false,
      "stateMutability": "view",
      "type": "function"
    },
    {
      "constant": true,
      "inputs": [],
      "name": "getOwner",
      "outputs": [
        {
          "internalType": "address",
          "name": "",
          "type": "address"
        }
      ],
      "payable": false,
      "stateMutability": "view",
      "type": "function"
    },
    {
      "constant": true,
      "inputs": [],
      "name": "getSymbol",
      "outputs": [
        {
          "internalType": "string",
          "name": "",
          "type": "string"
        }
      ],
      "payable": false,
      "stateMutability": "view",
      "type": "function"
    },
    {
      "constant": true,
      "inputs": [
        {
          "internalType": "address",
          "name": "owner",
          "type": "address"
        },
        {
          "internalType": "address",
          "name": "operator",
          "type": "address"
        }
      ],
      "name": "isApprovedForAll",
      "outputs": [
        {
          "internalType": "bool",
          "name": "",
          "type": "bool"
        }
      ],
      "payable": false,
      "stateMutability": "view",
      "type": "function"
    },
    {
      "constant": false,
      "inputs": [
        {
          "internalType": "address",
          "name": "to",
          "type": "address"
        },
        {
          "internalType": "uint256",
          "name": "tokenId",
          "type": "uint256"
        }
      ],
      "name": "mint",
      "outputs": [
        {
          "internalType": "bool",
          "name": "",
          "type": "bool"
        }
      ],
      "payable": false,
      "stateMutability": "nonpayable",
      "type": "function"
    },
    {
      "constant": true,
      "inputs": [
        {
          "internalType": "uint256",
          "name": "tokenId",
          "type": "uint256"
        }
      ],
      "name": "ownerOf",
      "outputs": [
        {
          "internalType": "address",
          "name": "",
          "type": "address"
        }
      ],
      "payable": false,
      "stateMutability": "view",
      "type": "function"
    },
    {
      "constant": false,
      "inputs": [
        {
          "internalType": "address",
          "name": "from",
          "type": "address"
        },
        {
          "internalType": "address",
          "name": "to",
          "type": "address"
        },
        {
          "internalType": "uint256",
          "name": "tokenId",
          "type": "uint256"
        }
      ],
      "name": "safeTransferFrom",
      "outputs": [],
      "payable": false,
      "stateMutability": "nonpayable",
      "type": "function"
    },
    {
      "constant": false,
      "inputs": [
        {
          "internalType": "address",
          "name": "from",
          "type": "address"
        },
        {
          "internalType": "address",
          "name": "to",
          "type": "address"
        },
        {
          "internalType": "uint256",
          "name": "tokenId",
          "type": "uint256"
        },
        {
          "internalType": "bytes",
          "name": "_data",
          "type": "bytes"
        }
      ],
      "name": "safeTransferFrom",
      "outputs": [],
      "payable": false,
      "stateMutability": "nonpayable",
      "type": "function"
    },
    {
      "constant": false,
      "inputs": [
        {
          "internalType": "address",
          "name": "to",
          "type": "address"
        },
        {
          "internalType": "bool",
          "name": "approved",
          "type": "bool"
        }
      ],
      "name": "setApprovalForAll",
      "outputs": [],
      "payable": false,
      "stateMutability": "nonpayable",
      "type": "function"
    },
    {
      "constant": false,
      "inputs": [
        {
          "internalType": "bool",
          "name": "status",
          "type": "bool"
        }
      ],
      "name": "setPaused",
      "outputs": [],
      "payable": false,
      "stateMutability": "nonpayable",
      "type": "function"
    },
    {
      "constant": true,
      "inputs": [],
      "name": "solutionCount",
      "outputs": [
        {
          "internalType": "uint256",
          "name": "",
          "type": "uint256"
        }
      ],
      "payable": false,
      "stateMutability": "view",
      "type": "function"
    },
    {
      "constant": true,
      "inputs": [
        {
          "internalType": "bytes32",
          "name": "",
          "type": "bytes32"
        }
      ],
      "name": "solutionsMapping",
      "outputs": [
        {
          "internalType": "uint256",
          "name": "solutionIndex",
          "type": "uint256"
        },
        {
          "internalType": "address",
          "name": "solutionAddress",
          "type": "address"
        }
      ],
      "payable": false,
      "stateMutability": "view",
      "type": "function"
    },
    {
      "constant": true,
      "inputs": [
        {
          "internalType": "bytes4",
          "name": "interfaceId",
          "type": "bytes4"
        }
      ],
      "name": "supportsInterface",
      "outputs": [
        {
          "internalType": "bool",
          "name": "",
          "type": "bool"
        }
      ],
      "payable": false,
      "stateMutability": "view",
      "type": "function"
    },
    {
      "constant": true,
      "inputs": [
        {
          "internalType": "uint256",
          "name": "index",
          "type": "uint256"
        }
      ],
      "name": "tokenByIndex",
      "outputs": [
        {
          "internalType": "uint256",
          "name": "",
          "type": "uint256"
        }
      ],
      "payable": false,
      "stateMutability": "view",
      "type": "function"
    },
    {
      "constant": true,
      "inputs": [
        {
          "internalType": "address",
          "name": "owner",
          "type": "address"
        },
        {
          "internalType": "uint256",
          "name": "index",
          "type": "uint256"
        }
      ],
      "name": "tokenOfOwnerByIndex",
      "outputs": [
        {
          "internalType": "uint256",
          "name": "",
          "type": "uint256"
        }
      ],
      "payable": false,
      "stateMutability": "view",
      "type": "function"
    },
    {
      "constant": true,
      "inputs": [
        {
          "internalType": "uint256",
          "name": "tokenId",
          "type": "uint256"
        }
      ],
      "name": "tokenURI",
      "outputs": [
        {
          "internalType": "string",
          "name": "",
          "type": "string"
        }
      ],
      "payable": false,
      "stateMutability": "view",
      "type": "function"
    },
    {
      "constant": true,
      "inputs": [],
      "name": "totalSupply",
      "outputs": [
        {
          "internalType": "uint256",
          "name": "",
          "type": "uint256"
        }
      ],
      "payable": false,
      "stateMutability": "view",
      "type": "function"
    },
    {
      "constant": false,
      "inputs": [
        {
          "internalType": "address",
          "name": "from",
          "type": "address"
        },
        {
          "internalType": "address",
          "name": "to",
          "type": "address"
        },
        {
          "internalType": "uint256",
          "name": "tokenId",
          "type": "uint256"
        }
      ],
      "name": "transferFrom",
      "outputs": [],
      "payable": false,
      "stateMutability": "nonpayable",
      "type": "function"
    },
    {
      "constant": false,
      "inputs": [
        {
          "internalType": "address",
          "name": "newOwner",
          "type": "address"
        }
      ],
      "name": "transferOwnership",
      "outputs": [],
      "payable": false,
      "stateMutability": "nonpayable",
      "type": "function"
    },
    {
      "constant": true,
      "inputs": [],
      "name": "getSolutionCount",
      "outputs": [
        {
          "internalType": "uint256",
          "name": "",
          "type": "uint256"
        }
      ],
      "payable": false,
      "stateMutability": "view",
      "type": "function"
    },
    {
      "constant": false,
      "inputs": [
        {
          "internalType": "address",
          "name": "solutionAddress",
          "type": "address"
        }
      ],
      "name": "addSolution",
      "outputs": [
        {
          "internalType": "uint256",
          "name": "id",
          "type": "uint256"
        }
      ],
      "payable": false,
      "stateMutability": "nonpayable",
      "type": "function"
    },
    {
      "constant": false,
      "inputs": [
        {
          "internalType": "address",
          "name": "to",
          "type": "address"
        },
        {
          "internalType": "uint256",
          "name": "tokenId",
          "type": "uint256"
        },
        {
          "components": [
            {
              "components": [
                {
                  "internalType": "uint256",
                  "name": "X",
                  "type": "uint256"
                },
                {
                  "internalType": "uint256",
                  "name": "Y",
                  "type": "uint256"
                }
              ],
              "internalType": "struct Pairing.G1Point",
              "name": "a",
              "type": "tuple"
            },
            {
              "components": [
                {
                  "internalType": "uint256[2]",
                  "name": "X",
                  "type": "uint256[2]"
                },
                {
                  "internalType": "uint256[2]",
                  "name": "Y",
                  "type": "uint256[2]"
                }
              ],
              "internalType": "struct Pairing.G2Point",
              "name": "b",
              "type": "tuple"
            },
            {
              "components": [
                {
                  "internalType": "uint256",
                  "name": "X",
                  "type": "uint256"
                },
                {
                  "internalType": "uint256",
                  "name": "Y",
                  "type": "uint256"
                }
              ],
              "internalType": "struct Pairing.G1Point",
              "name": "c",
              "type": "tuple"
            }
          ],
          "internalType": "struct Verifier.Proof",
          "name": "proof",
          "type": "tuple"
        },
        {
          "internalType": "uint256[2]",
          "name": "inputs",
          "type": "uint256[2]"
        }
      ],
      "name": "mintNewNFT",
      "outputs": [],
      "payable": false,
      "stateMutability": "nonpayable",
      "type": "function"
    }
  ],
  "bytecode": "0x608060405260006015553480156200001657600080fd5b5060405162003e3a38038062003e3a83398181016040526200003c9190810190620003d2565b6040518060400160405280601781526020017f5265616c20457374617465204d61726b6574706c6163650000000000000000008152506040518060400160405280600881526020017f43415053544f4e450000000000000000000000000000000000000000000000008152506040518060600160405280603f815260200162003dfb603f9139336000806101000a81548173ffffffffffffffffffffffffffffffffffffffff021916908373ffffffffffffffffffffffffffffffffffffffff1602179055507f9736aeb40a8f30a5c076a9897428fdf7ec0e909c96dce63533664c9b5c835da66000809054906101000a900473ffffffffffffffffffffffffffffffffffffffff166040516200015491906200040f565b60405180910390a160008060146101000a81548160ff0219169083151502179055506200018e6301ffc9a760e01b6200026c60201b60201c565b620001a66380ac58cd60e01b6200026c60201b60201c565b620001be63780e9d6360e01b6200026c60201b60201c565b82600f9080519060200190620001d69291906200030c565b508160109080519060200190620001ef9291906200030c565b508060119080519060200190620002089291906200030c565b5062000221635b5e139f60e01b6200026c60201b60201c565b50505080601360006101000a81548173ffffffffffffffffffffffffffffffffffffffff021916908373ffffffffffffffffffffffffffffffffffffffff160217905550506200047a565b63ffffffff60e01b817bffffffffffffffffffffffffffffffffffffffffffffffffffffffff19161415620002a057600080fd5b6001806000837bffffffffffffffffffffffffffffffffffffffffffffffffffffffff19167bffffffffffffffffffffffffffffffffffffffffffffffffffffffff1916815260200190815260200160002060006101000a81548160ff02191690831515021790555050565b828054600181600116156101000203166002900490600052602060002090601f016020900481019282601f106200034f57805160ff191683800117855562000380565b8280016001018555821562000380579182015b828111156200037f57825182559160200191906001019062000362565b5b5090506200038f919062000393565b5090565b620003b891905b80821115620003b45760008160009055506001016200039a565b5090565b90565b600081519050620003cc8162000460565b92915050565b600060208284031215620003e557600080fd5b6000620003f584828501620003bb565b91505092915050565b62000409816200042c565b82525050565b6000602082019050620004266000830184620003fe565b92915050565b6000620004398262000440565b9050919050565b600073ffffffffffffffffffffffffffffffffffffffff82169050919050565b6200046b816200042c565b81146200047757600080fd5b50565b613971806200048a6000396000f3fe608060405234801561001057600080fd5b50600436106101c45760003560e01c80634f6ccce7116100f9578063a22cb46511610097578063c87b56dd11610071578063c87b56dd14610517578063e985e9c514610547578063f2fde38b14610577578063ffbefe9114610593576101c4565b8063a22cb465146104c1578063b88d4fde146104dd578063bdc32be0146104f9576101c4565b806370a08231116100d357806370a082311461042557806376dcf4f514610455578063832e169514610473578063893d20e8146104a3576101c4565b80634f6ccce7146103a75780636352211e146103d75780636b3e219b14610407576101c4565b806323b872dd1161016657806338bbfa501161014057806338bbfa5014610323578063403d81ae1461033f57806340c10f191461035b57806342842e0e1461038b576101c4565b806323b872dd146102bb57806327dc297e146102d75780632f745c59146102f3576101c4565b806315070401116101a2578063150704011461024557806316c38b3c1461026357806317d7de7c1461027f57806318160ddd1461029d576101c4565b806301ffc9a7146101c9578063081812fc146101f9578063095ea7b314610229575b600080fd5b6101e360048036036101de9190810190612d38565b6105c4565b6040516101f09190613478565b60405180910390f35b610213600480360361020e9190810190612d8a565b61062c565b60405161022091906133f6565b60405180910390f35b610243600480360361023e9190810190612b49565b61067b565b005b61024d610838565b60405161025a9190613493565b60405180910390f35b61027d60048036036102789190810190612bea565b6108da565b005b610287610a0f565b6040516102949190613493565b60405180910390f35b6102a5610ab1565b6040516102b29190613600565b60405180910390f35b6102d560048036036102d09190810190612a43565b610abe565b005b6102f160048036036102ec9190810190612c65565b610ae1565b005b61030d60048036036103089190810190612b49565b610b24565b60405161031a9190613600565b60405180910390f35b61033d60048036036103389190810190612cb9565b610b97565b005b61035960048036036103549190810190612b85565b610b9c565b005b61037560048036036103709190810190612b49565b610e0a565b6040516103829190613478565b60405180910390f35b6103a560048036036103a09190810190612a43565b610eb8565b005b6103c160048036036103bc9190810190612d8a565b610ed8565b6040516103ce9190613600565b60405180910390f35b6103f160048036036103ec9190810190612d8a565b610f0c565b6040516103fe91906133f6565b60405180910390f35b61040f610f49565b60405161041c9190613600565b60405180910390f35b61043f600480360361043a91908101906129de565b610f4f565b60405161044c9190613600565b60405180910390f35b61045d610f9f565b60405161046a9190613600565b60405180910390f35b61048d600480360361048891908101906129de565b610fac565b60405161049a9190613600565b60405180910390f35b6104ab6110cd565b6040516104b891906133f6565b60405180910390f35b6104db60048036036104d69190810190612b0d565b6110f6565b005b6104f760048036036104f29190810190612a92565b61122c565b005b610501611252565b60405161050e9190613493565b60405180910390f35b610531600480360361052c9190810190612d8a565b6112f4565b60405161053e9190613493565b60405180910390f35b610561600480360361055c9190810190612a07565b6113bb565b60405161056e9190613478565b60405180910390f35b610591600480360361058c91908101906129de565b61144f565b005b6105ad60048036036105a89190810190612c3c565b6115e9565b6040516105bb92919061361b565b60405180910390f35b600060016000837bffffffffffffffffffffffffffffffffffffffffffffffffffffffff19167bffffffffffffffffffffffffffffffffffffffffffffffffffffffff1916815260200190815260200160002060009054906101000a900460ff169050919050565b60006106378261162d565b61064057600080fd5b6003600083815260200190815260200160002060009054906101000a900473ffffffffffffffffffffffffffffffffffffffff169050919050565b61068481610f0c565b73ffffffffffffffffffffffffffffffffffffffff168273ffffffffffffffffffffffffffffffffffffffff1614156106f2576040517f08c379a00000000000000000000000000000000000000000000000000000000081526004016106e990613555565b60405180910390fd5b6106fb81610f0c565b73ffffffffffffffffffffffffffffffffffffffff163373ffffffffffffffffffffffffffffffffffffffff16148061073a575061073933336113bb565b5b610779576040517f08c379a000000000000000000000000000000000000000000000000000000000815260040161077090613595565b60405180910390fd5b816003600083815260200190815260200160002060006101000a81548173ffffffffffffffffffffffffffffffffffffffff021916908373ffffffffffffffffffffffffffffffffffffffff16021790555060006107d682610f0c565b9050818373ffffffffffffffffffffffffffffffffffffffff168273ffffffffffffffffffffffffffffffffffffffff167f8c5be1e5ebec7d5bd14f71427d1e84f3dd0314c0f7b2291e5b200ac8c7c3b92560405160405180910390a4505050565b606060108054600181600116156101000203166002900480601f0160208091040260200160405190810160405280929190818152602001828054600181600116156101000203166002900480156108d05780601f106108a5576101008083540402835291602001916108d0565b820191906000526020600020905b8154815290600101906020018083116108b357829003601f168201915b5050505050905090565b6000809054906101000a900473ffffffffffffffffffffffffffffffffffffffff1673ffffffffffffffffffffffffffffffffffffffff163373ffffffffffffffffffffffffffffffffffffffff1614610969576040517f08c379a0000000000000000000000000000000000000000000000000000000008152600401610960906134b5565b60405180910390fd5b80600060146101000a81548160ff021916908315150217905550600060149054906101000a900460ff16156109d4577f62e78cea01bee320cd4e420270b5ea74000d11b0c9f74754ebdbfc544b05a258336040516109c79190613411565b60405180910390a1610a0c565b7f5db9ee0a495bf2e6ff9c91a7834c1ba4fdd244a5e8aa4e537bd38aeae4b073aa33604051610a039190613411565b60405180910390a15b50565b6060600f8054600181600116156101000203166002900480601f016020809104026020016040519081016040528092919081815260200182805460018160011615610100020316600290048015610aa75780601f10610a7c57610100808354040283529160200191610aa7565b820191906000526020600020905b815481529060010190602001808311610a8a57829003601f168201915b5050505050905090565b6000600880549050905090565b610ac8338261169f565b610ad157600080fd5b610adc838383611734565b505050565b610b20828260006040519080825280601f01601f191660200182016040528015610b1a5781602001600182028038833980820191505090505b50610b97565b5050565b6000610b2f83610f4f565b8210610b3a57600080fd5b600660008473ffffffffffffffffffffffffffffffffffffffff1673ffffffffffffffffffffffffffffffffffffffff1681526020019081526020016000208281548110610b8457fe5b9060005260206000200154905092915050565b505050565b600082600001516000015183600001516020015184602001516000015185602001516020015186604001516000015187604001516020015187604051602001610beb9796959493929190613375565b6040516020818303038152906040528051906020012090506000601660008381526020019081526020016000206000015414610c5c576040517f08c379a0000000000000000000000000000000000000000000000000000000008152600401610c5390613575565b60405180910390fd5b601360009054906101000a900473ffffffffffffffffffffffffffffffffffffffff1673ffffffffffffffffffffffffffffffffffffffff166343cd76fc84846040518363ffffffff1660e01b8152600401610cb99291906135d5565b60206040518083038186803b158015610cd157600080fd5b505afa158015610ce5573d6000803e3d6000fd5b505050506040513d601f19601f82011682018060405250610d099190810190612c13565b610d48576040517f08c379a0000000000000000000000000000000000000000000000000000000008152600401610d3f90613515565b60405180910390fd5b6000610d5386610fac565b905060148181548110610d6257fe5b906000526020600020906002020160166000848152602001908152602001600020600082015481600001556001820160009054906101000a900473ffffffffffffffffffffffffffffffffffffffff168160010160006101000a81548173ffffffffffffffffffffffffffffffffffffffff021916908373ffffffffffffffffffffffffffffffffffffffff160217905550905050610e018686610e0a565b50505050505050565b60008060009054906101000a900473ffffffffffffffffffffffffffffffffffffffff1673ffffffffffffffffffffffffffffffffffffffff163373ffffffffffffffffffffffffffffffffffffffff1614610e9b576040517f08c379a0000000000000000000000000000000000000000000000000000000008152600401610e92906134b5565b60405180910390fd5b610ea58383611758565b610eae82611779565b6001905092915050565b610ed38383836040518060200160405280600081525061122c565b505050565b6000610ee2610ab1565b8210610eed57600080fd5b60088281548110610efa57fe5b90600052602060002001549050919050565b60006002600083815260200190815260200160002060009054906101000a900473ffffffffffffffffffffffffffffffffffffffff169050919050565b60155481565b6000610f98600460008473ffffffffffffffffffffffffffffffffffffffff1673ffffffffffffffffffffffffffffffffffffffff168152602001908152602001600020611861565b9050919050565b6000601480549050905090565b6000610fb66125c1565b604051806040016040528060155481526020018473ffffffffffffffffffffffffffffffffffffffff168152509050601481908060018154018082558091505090600182039060005260206000209060020201600090919290919091506000820151816000015560208201518160010160006101000a81548173ffffffffffffffffffffffffffffffffffffffff021916908373ffffffffffffffffffffffffffffffffffffffff160217905550505050600060155490506015600081548092919060010191905055508373ffffffffffffffffffffffffffffffffffffffff166015547f078793128cefb19aac38a33f9e5df39f67716907f6d747e8065545699e0b2b8d60405160405180910390a35050919050565b60008060009054906101000a900473ffffffffffffffffffffffffffffffffffffffff16905090565b3373ffffffffffffffffffffffffffffffffffffffff168273ffffffffffffffffffffffffffffffffffffffff16141561112f57600080fd5b80600560003373ffffffffffffffffffffffffffffffffffffffff1673ffffffffffffffffffffffffffffffffffffffff16815260200190815260200160002060008473ffffffffffffffffffffffffffffffffffffffff1673ffffffffffffffffffffffffffffffffffffffff16815260200190815260200160002060006101000a81548160ff0219169083151502179055508173ffffffffffffffffffffffffffffffffffffffff163373ffffffffffffffffffffffffffffffffffffffff167f17307eab39ab6107e8899845ad3d59bd9653f200f220920489ca2b5937696c31836040516112209190613478565b60405180910390a35050565b611237848484610abe565b6112438484848461186f565b61124c57600080fd5b50505050565b606060118054600181600116156101000203166002900480601f0160208091040260200160405190810160405280929190818152602001828054600181600116156101000203166002900480156112ea5780601f106112bf576101008083540402835291602001916112ea565b820191906000526020600020905b8154815290600101906020018083116112cd57829003601f168201915b5050505050905090565b60606112ff8261162d565b61130857600080fd5b601260008381526020019081526020016000208054600181600116156101000203166002900480601f0160208091040260200160405190810160405280929190818152602001828054600181600116156101000203166002900480156113af5780601f10611384576101008083540402835291602001916113af565b820191906000526020600020905b81548152906001019060200180831161139257829003601f168201915b50505050509050919050565b6000600560008473ffffffffffffffffffffffffffffffffffffffff1673ffffffffffffffffffffffffffffffffffffffff16815260200190815260200160002060008373ffffffffffffffffffffffffffffffffffffffff1673ffffffffffffffffffffffffffffffffffffffff16815260200190815260200160002060009054906101000a900460ff16905092915050565b6000809054906101000a900473ffffffffffffffffffffffffffffffffffffffff1673ffffffffffffffffffffffffffffffffffffffff163373ffffffffffffffffffffffffffffffffffffffff16146114de576040517f08c379a00000000000000000000000000000000000000000000000000000000081526004016114d5906134b5565b60405180910390fd5b600073ffffffffffffffffffffffffffffffffffffffff168173ffffffffffffffffffffffffffffffffffffffff16141561154e576040517f08c379a000000000000000000000000000000000000000000000000000000000815260040161154590613535565b60405180910390fd5b806000806101000a81548173ffffffffffffffffffffffffffffffffffffffff021916908373ffffffffffffffffffffffffffffffffffffffff1602179055507f9736aeb40a8f30a5c076a9897428fdf7ec0e909c96dce63533664c9b5c835da66000809054906101000a900473ffffffffffffffffffffffffffffffffffffffff166040516115de91906133f6565b60405180910390a150565b60166020528060005260406000206000915090508060000154908060010160009054906101000a900473ffffffffffffffffffffffffffffffffffffffff16905082565b6000806002600084815260200190815260200160002060009054906101000a900473ffffffffffffffffffffffffffffffffffffffff169050600073ffffffffffffffffffffffffffffffffffffffff168173ffffffffffffffffffffffffffffffffffffffff161415915050919050565b6000806116ab83610f0c565b90508073ffffffffffffffffffffffffffffffffffffffff168473ffffffffffffffffffffffffffffffffffffffff16148061171a57508373ffffffffffffffffffffffffffffffffffffffff166117028461062c565b73ffffffffffffffffffffffffffffffffffffffff16145b8061172b575061172a81856113bb565b5b91505092915050565b61173f838383611986565b6117498382611bb5565b6117538282611d53565b505050565b6117628282611e1a565b61176c8282611d53565b61177581611f5b565b5050565b6117828161162d565b61178b57600080fd5b61183760118054600181600116156101000203166002900480601f0160208091040260200160405190810160405280929190818152602001828054600181600116156101000203166002900480156118245780601f106117f957610100808354040283529160200191611824565b820191906000526020600020905b81548152906001019060200180831161180757829003601f168201915b505050505061183283611fa7565b6120d4565b60126000838152602001908152602001600020908051906020019061185d9291906125f1565b5050565b600081600001549050919050565b60006118908473ffffffffffffffffffffffffffffffffffffffff16612118565b61189d576001905061197e565b60008473ffffffffffffffffffffffffffffffffffffffff1663150b7a02338887876040518563ffffffff1660e01b81526004016118de949392919061342c565b602060405180830381600087803b1580156118f857600080fd5b505af115801561190c573d6000803e3d6000fd5b505050506040513d601f19601f820116820180604052506119309190810190612d61565b905063150b7a0260e01b7bffffffffffffffffffffffffffffffffffffffffffffffffffffffff1916817bffffffffffffffffffffffffffffffffffffffffffffffffffffffff1916149150505b949350505050565b61198f81610f0c565b73ffffffffffffffffffffffffffffffffffffffff168373ffffffffffffffffffffffffffffffffffffffff16146119fc576040517f08c379a00000000000000000000000000000000000000000000000000000000081526004016119f3906135b5565b60405180910390fd5b600073ffffffffffffffffffffffffffffffffffffffff168273ffffffffffffffffffffffffffffffffffffffff161415611a6c576040517f08c379a0000000000000000000000000000000000000000000000000000000008152600401611a63906134d5565b60405180910390fd5b611a7581612163565b816002600083815260200190815260200160002060006101000a81548173ffffffffffffffffffffffffffffffffffffffff021916908373ffffffffffffffffffffffffffffffffffffffff160217905550611b0e600460008573ffffffffffffffffffffffffffffffffffffffff1673ffffffffffffffffffffffffffffffffffffffff168152602001908152602001600020612221565b611b55600460008473ffffffffffffffffffffffffffffffffffffffff1673ffffffffffffffffffffffffffffffffffffffff168152602001908152602001600020612244565b808273ffffffffffffffffffffffffffffffffffffffff168473ffffffffffffffffffffffffffffffffffffffff167fddf252ad1be2c89b69c2b068fc378daa952ba7f163c4a11628f55a4df523b3ef60405160405180910390a4505050565b6000611c0d6001600660008673ffffffffffffffffffffffffffffffffffffffff1673ffffffffffffffffffffffffffffffffffffffff1681526020019081526020016000208054905061225a90919063ffffffff16565b9050600060076000848152602001908152602001600020549050818114611cfa576000600660008673ffffffffffffffffffffffffffffffffffffffff1673ffffffffffffffffffffffffffffffffffffffff1681526020019081526020016000208381548110611c7a57fe5b9060005260206000200154905080600660008773ffffffffffffffffffffffffffffffffffffffff1673ffffffffffffffffffffffffffffffffffffffff1681526020019081526020016000208381548110611cd257fe5b9060005260206000200181905550816007600083815260200190815260200160002081905550505b600660008573ffffffffffffffffffffffffffffffffffffffff1673ffffffffffffffffffffffffffffffffffffffff168152602001908152602001600020805480919060019003611d4c9190612671565b5050505050565b600660008373ffffffffffffffffffffffffffffffffffffffff1673ffffffffffffffffffffffffffffffffffffffff168152602001908152602001600020805490506007600083815260200190815260200160002081905550600660008373ffffffffffffffffffffffffffffffffffffffff1673ffffffffffffffffffffffffffffffffffffffff1681526020019081526020016000208190806001815401808255809150509060018203906000526020600020016000909192909190915055505050565b611e238161162d565b15611e63576040517f08c379a0000000000000000000000000000000000000000000000000000000008152600401611e5a906134f5565b60405180910390fd5b816002600083815260200190815260200160002060006101000a81548173ffffffffffffffffffffffffffffffffffffffff021916908373ffffffffffffffffffffffffffffffffffffffff160217905550611efc600460008473ffffffffffffffffffffffffffffffffffffffff1673ffffffffffffffffffffffffffffffffffffffff168152602001908152602001600020612244565b808273ffffffffffffffffffffffffffffffffffffffff163373ffffffffffffffffffffffffffffffffffffffff167fddf252ad1be2c89b69c2b068fc378daa952ba7f163c4a11628f55a4df523b3ef60405160405180910390a45050565b6008805490506009600083815260200190815260200160002081905550600881908060018154018082558091505090600182039060005260206000200160009091929091909150555050565b60606000821415611fef576040518060400160405280600181526020017f300000000000000000000000000000000000000000000000000000000000000081525090506120cf565b600082905060005b60008214612019578080600101915050600a828161201157fe5b049150611ff7565b6060816040519080825280601f01601f19166020018201604052801561204e5781602001600182028038833980820191505090505b50905060006001830390505b600086146120c757600a868161206c57fe5b0660300160f81b8282806001900393508151811061208657fe5b60200101907effffffffffffffffffffffffffffffffffffffffffffffffffffffffffffff1916908160001a905350600a86816120bf57fe5b04955061205a565b819450505050505b919050565b606061211083836040518060200160405280600081525060405180602001604052806000815250604051806020016040528060008152506122a4565b905092915050565b60008060007fc5d2460186f7233c927e7db2dcc703c0e500b653ca82273b7bfad8045d85a47060001b9050833f915080821415801561215a57506000801b8214155b92505050919050565b600073ffffffffffffffffffffffffffffffffffffffff166003600083815260200190815260200160002060009054906101000a900473ffffffffffffffffffffffffffffffffffffffff1673ffffffffffffffffffffffffffffffffffffffff161461221e5760006003600083815260200190815260200160002060006101000a81548173ffffffffffffffffffffffffffffffffffffffff021916908373ffffffffffffffffffffffffffffffffffffffff1602179055505b50565b6122396001826000015461225a90919063ffffffff16565b816000018190555050565b6001816000016000828254019250508190555050565b600061229c83836040518060400160405280601e81526020017f536166654d6174683a207375627472616374696f6e206f766572666c6f770000815250612566565b905092915050565b6060808690506060869050606086905060608690506060869050606081518351855187518951010101016040519080825280601f01601f1916602001820160405280156123005781602001600182028038833980820191505090505b509050606081905060008090506000809050600090505b88518110156123855788818151811061232c57fe5b602001015160f81c60f81b83838060010194508151811061234957fe5b60200101907effffffffffffffffffffffffffffffffffffffffffffffffffffffffffffff1916908160001a9053508080600101915050612317565b600090505b87518110156123f85787818151811061239f57fe5b602001015160f81c60f81b8383806001019450815181106123bc57fe5b60200101907effffffffffffffffffffffffffffffffffffffffffffffffffffffffffffff1916908160001a905350808060010191505061238a565b600090505b865181101561246b5786818151811061241257fe5b602001015160f81c60f81b83838060010194508151811061242f57fe5b60200101907effffffffffffffffffffffffffffffffffffffffffffffffffffffffffffff1916908160001a90535080806001019150506123fd565b600090505b85518110156124de5785818151811061248557fe5b602001015160f81c60f81b8383806001019450815181106124a257fe5b60200101907effffffffffffffffffffffffffffffffffffffffffffffffffffffffffffff1916908160001a9053508080600101915050612470565b600090505b8451811015612551578481815181106124f857fe5b602001015160f81c60f81b83838060010194508151811061251557fe5b60200101907effffffffffffffffffffffffffffffffffffffffffffffffffffffffffffff1916908160001a90535080806001019150506124e3565b82995050505050505050505095945050505050565b60008383111582906125ae576040517f08c379a00000000000000000000000000000000000000000000000000000000081526004016125a59190613493565b60405180910390fd5b5060008385039050809150509392505050565b604051806040016040528060008152602001600073ffffffffffffffffffffffffffffffffffffffff1681525090565b828054600181600116156101000203166002900490600052602060002090601f016020900481019282601f1061263257805160ff1916838001178555612660565b82800160010185558215612660579182015b8281111561265f578251825591602001919060010190612644565b5b50905061266d919061269d565b5090565b81548183558181111561269857818360005260206000209182019101612697919061269d565b5b505050565b6126bf91905b808211156126bb5760008160009055506001016126a3565b5090565b90565b6000813590506126d1816138bb565b92915050565b600082601f8301126126e857600080fd5b60026126fb6126f682613671565b613644565b9150818385602084028201111561271157600080fd5b60005b83811015612741578161272788826129c9565b845260208401935060208301925050600181019050612714565b5050505092915050565b600082601f83011261275c57600080fd5b600261276f61276a82613693565b613644565b9150818385602084028201111561278557600080fd5b60005b838110156127b5578161279b88826129c9565b845260208401935060208301925050600181019050612788565b5050505092915050565b6000813590506127ce816138d2565b92915050565b6000815190506127e3816138d2565b92915050565b6000813590506127f8816138e9565b92915050565b60008135905061280d81613900565b92915050565b60008151905061282281613900565b92915050565b600082601f83011261283957600080fd5b813561284c612847826136b5565b613644565b9150808252602083016020830185838301111561286857600080fd5b61287383828461385e565b50505092915050565b600082601f83011261288d57600080fd5b81356128a061289b826136e1565b613644565b915080825260208301602083018583830111156128bc57600080fd5b6128c783828461385e565b50505092915050565b6000604082840312156128e257600080fd5b6128ec6040613644565b905060006128fc848285016129c9565b6000830152506020612910848285016129c9565b60208301525092915050565b60006080828403121561292e57600080fd5b6129386040613644565b90506000612948848285016126d7565b600083015250604061295c848285016126d7565b60208301525092915050565b6000610100828403121561297b57600080fd5b6129856060613644565b90506000612995848285016128d0565b60008301525060406129a98482850161291c565b60208301525060c06129bd848285016128d0565b60408301525092915050565b6000813590506129d881613917565b92915050565b6000602082840312156129f057600080fd5b60006129fe848285016126c2565b91505092915050565b60008060408385031215612a1a57600080fd5b6000612a28858286016126c2565b9250506020612a39858286016126c2565b9150509250929050565b600080600060608486031215612a5857600080fd5b6000612a66868287016126c2565b9350506020612a77868287016126c2565b9250506040612a88868287016129c9565b9150509250925092565b60008060008060808587031215612aa857600080fd5b6000612ab6878288016126c2565b9450506020612ac7878288016126c2565b9350506040612ad8878288016129c9565b925050606085013567ffffffffffffffff811115612af557600080fd5b612b0187828801612828565b91505092959194509250565b60008060408385031215612b2057600080fd5b6000612b2e858286016126c2565b9250506020612b3f858286016127bf565b9150509250929050565b60008060408385031215612b5c57600080fd5b6000612b6a858286016126c2565b9250506020612b7b858286016129c9565b9150509250929050565b6000806000806101808587031215612b9c57600080fd5b6000612baa878288016126c2565b9450506020612bbb878288016129c9565b9350506040612bcc87828801612968565b925050610140612bde8782880161274b565b91505092959194509250565b600060208284031215612bfc57600080fd5b6000612c0a848285016127bf565b91505092915050565b600060208284031215612c2557600080fd5b6000612c33848285016127d4565b91505092915050565b600060208284031215612c4e57600080fd5b6000612c5c848285016127e9565b91505092915050565b60008060408385031215612c7857600080fd5b6000612c86858286016127e9565b925050602083013567ffffffffffffffff811115612ca357600080fd5b612caf8582860161287c565b9150509250929050565b600080600060608486031215612cce57600080fd5b6000612cdc868287016127e9565b935050602084013567ffffffffffffffff811115612cf957600080fd5b612d058682870161287c565b925050604084013567ffffffffffffffff811115612d2257600080fd5b612d2e86828701612828565b9150509250925092565b600060208284031215612d4a57600080fd5b6000612d58848285016127fe565b91505092915050565b600060208284031215612d7357600080fd5b6000612d8184828501612813565b91505092915050565b600060208284031215612d9c57600080fd5b6000612daa848285016129c9565b91505092915050565b6000612dbf8383613331565b60208301905092915050565b6000612dd7838361334f565b60208301905092915050565b612dec81613828565b82525050565b612dfb816137aa565b82525050565b612e0a8161372c565b612e148184613772565b9250612e1f82613717565b8060005b83811015612e50578151612e378782612db3565b9650612e428361375a565b925050600181019050612e23565b505050505050565b612e618161372c565b612e6b818461377d565b9250612e7682613717565b8060005b83811015612ea7578151612e8e8782612dcb565b9650612e998361375a565b925050600181019050612e7a565b505050505050565b612eb881613721565b612ec28184613767565b9250612ecd8261370d565b8060005b83811015612efe578151612ee58782612db3565b9650612ef08361374d565b925050600181019050612ed1565b505050505050565b612f0f81613721565b612f19818461377d565b9250612f248261370d565b8060005b83811015612f55578151612f3c8782612dcb565b9650612f478361374d565b925050600181019050612f28565b505050505050565b612f66816137bc565b82525050565b6000612f7782613737565b612f818185613788565b9350612f9181856020860161386d565b612f9a816138aa565b840191505092915050565b6000612fb082613742565b612fba8185613799565b9350612fca81856020860161386d565b612fd3816138aa565b840191505092915050565b6000612feb602583613799565b91507f4f6e6c7920746865206f776e65722063616e2063616c6c20746869732066756e60008301527f6374696f6e0000000000000000000000000000000000000000000000000000006020830152604082019050919050565b6000613051600f83613799565b91507f496e76616c6964206164647265737300000000000000000000000000000000006000830152602082019050919050565b6000613091601483613799565b91507f546f6b656e20616c7265616479206578697374730000000000000000000000006000830152602082019050919050565b60006130d1601383613799565b91507f566572696669636174696f6e206661696c6564000000000000000000000000006000830152602082019050919050565b6000613111602083613799565b91507f4e6577206f776e6572206973206e6f7420612076616c696420616464726573736000830152602082019050919050565b6000613151601b83613799565b91507f43616e6e6f7420617070726f766520746f20746865206f776e657200000000006000830152602082019050919050565b6000613191601683613799565b91507f536f6c7574696f6e20616c726561647920757365642e000000000000000000006000830152602082019050919050565b60006131d1602683613799565b91507f4f6e6c7920746865206f776e6572206f72206f70657261746f722063616e206160008301527f7070726f766500000000000000000000000000000000000000000000000000006020830152604082019050919050565b6000613237602483613799565b91507f53656e646572206973206e6f7420746865206f776e6572206f6620746865207460008301527f6f6b656e000000000000000000000000000000000000000000000000000000006020830152604082019050919050565b6040820160008201516132a66000850182613331565b5060208201516132b96020850182613331565b50505050565b6080820160008201516132d56000850182612eaf565b5060208201516132e86040850182612eaf565b50505050565b610100820160008201516133056000850182613290565b50602082015161331860408501826132bf565b50604082015161332b60c0850182613290565b50505050565b61333a8161381e565b82525050565b6133498161381e565b82525050565b6133588161381e565b82525050565b61336f61336a8261381e565b6138a0565b82525050565b6000613381828a61335e565b602082019150613391828961335e565b6020820191506133a18288612f06565b6040820191506133b18287612f06565b6040820191506133c1828661335e565b6020820191506133d1828561335e565b6020820191506133e18284612e58565b60408201915081905098975050505050505050565b600060208201905061340b6000830184612df2565b92915050565b60006020820190506134266000830184612de3565b92915050565b60006080820190506134416000830187612de3565b61344e6020830186612df2565b61345b6040830185613340565b818103606083015261346d8184612f6c565b905095945050505050565b600060208201905061348d6000830184612f5d565b92915050565b600060208201905081810360008301526134ad8184612fa5565b905092915050565b600060208201905081810360008301526134ce81612fde565b9050919050565b600060208201905081810360008301526134ee81613044565b9050919050565b6000602082019050818103600083015261350e81613084565b9050919050565b6000602082019050818103600083015261352e816130c4565b9050919050565b6000602082019050818103600083015261354e81613104565b9050919050565b6000602082019050818103600083015261356e81613144565b9050919050565b6000602082019050818103600083015261358e81613184565b9050919050565b600060208201905081810360008301526135ae816131c4565b9050919050565b600060208201905081810360008301526135ce8161322a565b9050919050565b6000610140820190506135eb60008301856132ee565b6135f9610100830184612e01565b9392505050565b60006020820190506136156000830184613340565b92915050565b60006040820190506136306000830185613340565b61363d6020830184612df2565b9392505050565b6000604051905081810181811067ffffffffffffffff8211171561366757600080fd5b8060405250919050565b600067ffffffffffffffff82111561368857600080fd5b602082029050919050565b600067ffffffffffffffff8211156136aa57600080fd5b602082029050919050565b600067ffffffffffffffff8211156136cc57600080fd5b601f19601f8301169050602081019050919050565b600067ffffffffffffffff8211156136f857600080fd5b601f19601f8301169050602081019050919050565b6000819050919050565b6000819050919050565b600060029050919050565b600060029050919050565b600081519050919050565b600081519050919050565b6000602082019050919050565b6000602082019050919050565b600081905092915050565b600081905092915050565b600081905092915050565b600082825260208201905092915050565b600082825260208201905092915050565b60006137b5826137fe565b9050919050565b60008115159050919050565b6000819050919050565b60007fffffffff0000000000000000000000000000000000000000000000000000000082169050919050565b600073ffffffffffffffffffffffffffffffffffffffff82169050919050565b6000819050919050565b60006138338261383a565b9050919050565b60006138458261384c565b9050919050565b6000613857826137fe565b9050919050565b82818337600083830152505050565b60005b8381101561388b578082015181840152602081019050613870565b8381111561389a576000848401525b50505050565b6000819050919050565b6000601f19601f8301169050919050565b6138c4816137aa565b81146138cf57600080fd5b50565b6138db816137bc565b81146138e657600080fd5b50565b6138f2816137c8565b81146138fd57600080fd5b50565b613909816137d2565b811461391457600080fd5b50565b6139208161381e565b811461392b57600080fd5b5056fea365627a7a72315820406cd3828982b50277cb4b6fc5cc4186930ad35aa556432d565f7f1705245c326c6578706572696d656e74616cf564736f6c6343000510004068747470733a2f2f73332d75732d776573742d322e616d617a6f6e6177732e636f6d2f756461636974792d626c6f636b636861696e2f63617073746f6e652f",
  "source": "pragma solidity >=0.4.21 <0.6.0;\npragma experimental ABIEncoderV2;\n\nimport './ERC721Mintable.sol';\nimport './verifier.sol';\n\n\n// TODO define a contract call to the zokrates generated solidity contract <Verifier> or <renamedVerifier>\n\n// TODO define another contract named SolnSquareVerifier that inherits from your ERC721Mintable class\ncontract SolnSquareVerifier is DarkIslandToken{\n\n    Verifier private contractVerifier;\n\n    constructor(address _contractVerifier) public{\n        contractVerifier = Verifier(_contractVerifier);\n    }\n\n// TODO define a solutions struct that can hold an index & an address\n    struct Solution {\n        uint256 solutionIndex;\n        address solutionAddress;\n    }\n\n// TODO define an array of the above struct\n    Solution[] private solutions;\n    uint256 public solutionCount=0;\n\n    function getSolutionCount() public view returns(uint256) {\n        return solutions.length;\n    }\n// TODO define a mapping to store unique solutions submitted\n    mapping(bytes32 => Solution) public solutionsMapping;\n\n\n// TODO Create an event to emit when a solution is added\n    event SolutionAdded(uint256 indexed solutionIndex, address indexed solutionAddress);\n\n\n// TODO Create a function to add the solutions to the array and emit the event\n    function addSolution(address solutionAddress) public returns(uint256 id){\n        Solution memory solution = Solution(solutionCount, solutionAddress);\n        solutions.push(solution);  \n        uint256 id = solutionCount;\n        solutionCount++;\n        emit SolutionAdded(solutionCount, solutionAddress);\n    }\n\n\n// TODO Create a function to mint new NFT only after the solution has been verified\n//  - make sure the solution is unique (has not been used before)\n//  - make sure you handle metadata as well as tokenSuplly\n    function mintNewNFT(address to, uint256 tokenId,Verifier.Proof memory proof, uint[2] memory inputs ) public{\n\n        bytes32 key = keccak256(abi.encodePacked(proof.a.X, proof.a.Y, proof.b.X, proof.b.Y, proof.c.X, proof.c.Y, inputs));\n        require(solutionsMapping[key].solutionIndex == 0, \"Solution already used.\");\n        require(contractVerifier.verifyTx(proof, inputs), \"Verification failed\");        \n        \n        uint256 id = addSolution(to);\n        solutionsMapping[key] = solutions[id];\n\n        mint(to, tokenId);  \n\n    }\n\n}\n\n\n\n\n\n  \n\n\n\n\n\n\n\n\n\n\n\n\n\n\n\n\n\n\n\n\n\n\n\n\n\n\n",
  "sourcePath": "/Users/hassan/Desktop/Blockchain/UdacityEx/Blockchain-Capstone/eth-contracts/contracts/SolnSquareVerifier.sol",
  "compiler": {
    "name": "solc",
    "version": "0.5.16+commit.9c3226ce.Emscripten.clang"
  },
  "schemaVersion": "3.4.3",
  "updatedAt": "2022-01-19T10:04:06.170Z",
  "networkType": "ethereum",
  "devdoc": {
    "methods": {
      "isApprovedForAll(address,address)": {
        "details": "Tells whether an operator is approved by a given owner",
        "params": {
          "operator": "operator address which you want to query the approval of",
          "owner": "owner address which you want to query the approval of"
        },
        "return": "bool whether the given operator is approved by the given owner"
      },
      "setApprovalForAll(address,bool)": {
        "details": "Sets or unsets the approval of a given operator An operator is allowed to transfer all tokens of the sender on their behalf",
        "params": {
          "approved": "representing the status of the approval to be set",
          "to": "operator address to set the approval"
        }
      },
      "supportsInterface(bytes4)": {
        "details": "implement supportsInterface(bytes4) using a lookup table"
      },
      "tokenByIndex(uint256)": {
        "details": "Gets the token ID at a given index of all the tokens in this contract Reverts if the index is greater or equal to the total number of tokens",
        "params": {
          "index": "uint256 representing the index to be accessed of the tokens list"
        },
        "return": "uint256 token ID at the given index of the tokens list"
      },
      "tokenOfOwnerByIndex(address,uint256)": {
        "details": "Gets the token ID at a given index of the tokens list of the requested owner",
        "params": {
          "index": "uint256 representing the index to be accessed of the requested tokens list",
          "owner": "address owning the tokens list to be accessed"
        },
        "return": "uint256 token ID at the given index of the tokens list owned by the requested address"
      },
      "totalSupply()": {
        "details": "Gets the total amount of tokens stored by the contract",
        "return": "uint256 representing the total amount of tokens"
      }
    }
  },
  "userdoc": {
    "methods": {}
  }
}